{
  "contractName": "DataStore",
  "abi": [
    {
      "inputs": [],
      "name": "dataCount",
      "outputs": [
        {
          "internalType": "uint256",
          "name": "",
          "type": "uint256"
        }
      ],
      "stateMutability": "view",
      "type": "function"
    },
    {
      "inputs": [
        {
          "internalType": "uint256",
          "name": "",
          "type": "uint256"
        }
      ],
      "name": "dataRecords",
      "outputs": [
        {
          "internalType": "uint256",
          "name": "id",
          "type": "uint256"
        },
        {
          "internalType": "string",
          "name": "name",
          "type": "string"
        },
        {
          "internalType": "string",
          "name": "info",
          "type": "string"
        }
      ],
      "stateMutability": "view",
      "type": "function"
    },
    {
      "inputs": [
        {
          "internalType": "uint256",
          "name": "_id",
          "type": "uint256"
        },
        {
          "internalType": "string",
          "name": "_name",
          "type": "string"
        },
        {
          "internalType": "string",
          "name": "_info",
          "type": "string"
        }
      ],
      "name": "storeData",
      "outputs": [],
      "stateMutability": "nonpayable",
      "type": "function"
    },
    {
      "inputs": [
        {
          "internalType": "uint256",
          "name": "_index",
          "type": "uint256"
        }
      ],
      "name": "getData",
      "outputs": [
        {
          "internalType": "uint256",
          "name": "",
          "type": "uint256"
        },
        {
          "internalType": "string",
          "name": "",
          "type": "string"
        },
        {
          "internalType": "string",
          "name": "",
          "type": "string"
        }
      ],
      "stateMutability": "view",
      "type": "function"
    }
  ],
  "bytecode": "0x608060405234801561001057600080fd5b5061071c806100206000396000f3fe608060405234801561001057600080fd5b506004361061004c5760003560e01c80630178fe3f146100515780633bf408f41461007c5780635da40c4714610091578063c8592e0b146100a8575b600080fd5b61006461005f3660046103d2565b6100bb565b60405161007393929190610431565b60405180910390f35b61008f61008a366004610509565b610229565b005b61009a60015481565b604051908152602001610073565b6100646100b63660046103d2565b61029f565b60006060806000806000868152602001908152602001600020604051806060016040529081600082015481526020016001820180546100f990610576565b80601f016020809104026020016040519081016040528092919081815260200182805461012590610576565b80156101725780601f1061014757610100808354040283529160200191610172565b820191906000526020600020905b81548152906001019060200180831161015557829003601f168201915b5050505050815260200160028201805461018b90610576565b80601f01602080910402602001604051908101604052809291908181526020018280546101b790610576565b80156102045780601f106101d957610100808354040283529160200191610204565b820191906000526020600020905b8154815290600101906020018083116101e757829003601f168201915b5050509190925250508151602083015160409093015190989297509550909350505050565b6040805160608101825284815260208082018581528284018590526001805460009081529283905293909120825181559051919290919082019061026d90826105ff565b506040820151600282019061028290826105ff565b50506001805491506000610295836106bf565b9190505550505050565b600060208190529081526040902080546001820180549192916102c190610576565b80601f01602080910402602001604051908101604052809291908181526020018280546102ed90610576565b801561033a5780601f1061030f5761010080835404028352916020019161033a565b820191906000526020600020905b81548152906001019060200180831161031d57829003601f168201915b50505050509080600201805461034f90610576565b80601f016020809104026020016040519081016040528092919081815260200182805461037b90610576565b80156103c85780601f1061039d576101008083540402835291602001916103c8565b820191906000526020600020905b8154815290600101906020018083116103ab57829003601f168201915b5050505050905083565b6000602082840312156103e457600080fd5b5035919050565b6000815180845260005b81811015610411576020818501810151868301820152016103f5565b506000602082860101526020601f19601f83011685010191505092915050565b83815260606020820152600061044a60608301856103eb565b828103604084015261045c81856103eb565b9695505050505050565b634e487b7160e01b600052604160045260246000fd5b600082601f83011261048d57600080fd5b813567ffffffffffffffff808211156104a8576104a8610466565b604051601f8301601f19908116603f011681019082821181831017156104d0576104d0610466565b816040528381528660208588010111156104e957600080fd5b836020870160208301376000602085830101528094505050505092915050565b60008060006060848603121561051e57600080fd5b83359250602084013567ffffffffffffffff8082111561053d57600080fd5b6105498783880161047c565b9350604086013591508082111561055f57600080fd5b5061056c8682870161047c565b9150509250925092565b600181811c9082168061058a57607f821691505b6020821081036105aa57634e487b7160e01b600052602260045260246000fd5b50919050565b601f8211156105fa57600081815260208120601f850160051c810160208610156105d75750805b601f850160051c820191505b818110156105f6578281556001016105e3565b5050505b505050565b815167ffffffffffffffff81111561061957610619610466565b61062d816106278454610576565b846105b0565b602080601f831160018114610662576000841561064a5750858301515b600019600386901b1c1916600185901b1785556105f6565b600085815260208120601f198616915b8281101561069157888601518255948401946001909101908401610672565b50858210156106af5787850151600019600388901b60f8161c191681555b5050505050600190811b01905550565b6000600182016106df57634e487b7160e01b600052601160045260246000fd5b506001019056fea2646970667358221220aee341f4fd07e57e4a14c8c81544531dedbe6af8fe1ffc4480205cf3a0c4383d64736f6c63430008150033",
  "immutableReferences": {},
  "source": "// SPDX-License-Identifier: MIT\r\npragma solidity ^0.8.0;\r\n\r\ncontract DataStore {\r\n    struct Data {\r\n        uint id;\r\n        string name;\r\n        string info;\r\n    }\r\n\r\n    mapping(uint => Data) public dataRecords;\r\n    uint public dataCount;\r\n\r\n    function storeData(uint _id, string memory _name, string memory _info) public {\r\n        dataRecords[dataCount] = Data(_id, _name, _info);\r\n        dataCount++;\r\n    }\r\n\r\n    function getData(uint _index) public view returns (uint, string memory, string memory) {\r\n        Data memory record = dataRecords[_index];\r\n        return (record.id, record.name, record.info);\r\n    }\r\n}\r\n",
  "sourcePath": "C:\\Users\\veena\\Downloads\\BlockD (1)\\BlockD\\blockchain\\contracts\\DataStore.sol",
  "compiler": {
    "name": "solc",
    "version": "0.8.21+commit.d9974bed.Emscripten.clang"
  },
  "schemaVersion": "3.4.16",
  "updatedAt": "2024-12-07T14:33:20.218Z",
  "devdoc": {
    "kind": "dev",
    "methods": {},
    "version": 1
  },
  "userdoc": {
    "kind": "user",
    "methods": {},
    "version": 1
  }
}